{
  "_format": "hh-sol-artifact-1",
  "contractName": "EventTicketNFT",
  "sourceName": "contracts/EventTicketNFT.sol",
  "abi": [
    {
      "inputs": [],
      "stateMutability": "nonpayable",
      "type": "constructor"
    },
    {
      "inputs": [],
      "name": "AccessControlBadConfirmation",
      "type": "error"
    },
    {
      "inputs": [
        {
          "internalType": "address",
          "name": "account",
          "type": "address"
        },
        {
          "internalType": "bytes32",
          "name": "neededRole",
          "type": "bytes32"
        }
      ],
      "name": "AccessControlUnauthorizedAccount",
      "type": "error"
    },
    {
      "inputs": [
        {
          "internalType": "address",
          "name": "sender",
          "type": "address"
        },
        {
          "internalType": "uint256",
          "name": "tokenId",
          "type": "uint256"
        },
        {
          "internalType": "address",
          "name": "owner",
          "type": "address"
        }
      ],
      "name": "ERC721IncorrectOwner",
      "type": "error"
    },
    {
      "inputs": [
        {
          "internalType": "address",
          "name": "operator",
          "type": "address"
        },
        {
          "internalType": "uint256",
          "name": "tokenId",
          "type": "uint256"
        }
      ],
      "name": "ERC721InsufficientApproval",
      "type": "error"
    },
    {
      "inputs": [
        {
          "internalType": "address",
          "name": "approver",
          "type": "address"
        }
      ],
      "name": "ERC721InvalidApprover",
      "type": "error"
    },
    {
      "inputs": [
        {
          "internalType": "address",
          "name": "operator",
          "type": "address"
        }
      ],
      "name": "ERC721InvalidOperator",
      "type": "error"
    },
    {
      "inputs": [
        {
          "internalType": "address",
          "name": "owner",
          "type": "address"
        }
      ],
      "name": "ERC721InvalidOwner",
      "type": "error"
    },
    {
      "inputs": [
        {
          "internalType": "address",
          "name": "receiver",
          "type": "address"
        }
      ],
      "name": "ERC721InvalidReceiver",
      "type": "error"
    },
    {
      "inputs": [
        {
          "internalType": "address",
          "name": "sender",
          "type": "address"
        }
      ],
      "name": "ERC721InvalidSender",
      "type": "error"
    },
    {
      "inputs": [
        {
          "internalType": "uint256",
          "name": "tokenId",
          "type": "uint256"
        }
      ],
      "name": "ERC721NonexistentToken",
      "type": "error"
    },
    {
      "inputs": [
        {
          "internalType": "address",
          "name": "owner",
          "type": "address"
        }
      ],
      "name": "OwnableInvalidOwner",
      "type": "error"
    },
    {
      "inputs": [
        {
          "internalType": "address",
          "name": "account",
          "type": "address"
        }
      ],
      "name": "OwnableUnauthorizedAccount",
      "type": "error"
    },
    {
      "inputs": [],
      "name": "ReentrancyGuardReentrantCall",
      "type": "error"
    },
    {
      "anonymous": false,
      "inputs": [
        {
          "indexed": true,
          "internalType": "address",
          "name": "owner",
          "type": "address"
        },
        {
          "indexed": true,
          "internalType": "address",
          "name": "approved",
          "type": "address"
        },
        {
          "indexed": true,
          "internalType": "uint256",
          "name": "tokenId",
          "type": "uint256"
        }
      ],
      "name": "Approval",
      "type": "event"
    },
    {
      "anonymous": false,
      "inputs": [
        {
          "indexed": true,
          "internalType": "address",
          "name": "owner",
          "type": "address"
        },
        {
          "indexed": true,
          "internalType": "address",
          "name": "operator",
          "type": "address"
        },
        {
          "indexed": false,
          "internalType": "bool",
          "name": "approved",
          "type": "bool"
        }
      ],
      "name": "ApprovalForAll",
      "type": "event"
    },
    {
      "anonymous": false,
      "inputs": [
        {
          "indexed": true,
          "internalType": "uint256",
          "name": "tokenId",
          "type": "uint256"
        }
      ],
      "name": "AttendanceMarked",
      "type": "event"
    },
    {
      "anonymous": false,
      "inputs": [
        {
          "indexed": true,
          "internalType": "uint256",
          "name": "tokenId",
          "type": "uint256"
        },
        {
          "indexed": false,
          "internalType": "bytes32",
          "name": "certificateHash",
          "type": "bytes32"
        }
      ],
      "name": "CertificateIssued",
      "type": "event"
    },
    {
      "anonymous": false,
      "inputs": [
        {
          "indexed": true,
          "internalType": "uint256",
          "name": "eventId",
          "type": "uint256"
        }
      ],
      "name": "EventAdded",
      "type": "event"
    },
    {
      "anonymous": false,
      "inputs": [
        {
          "indexed": true,
          "internalType": "uint256",
          "name": "eventId",
          "type": "uint256"
        }
      ],
      "name": "EventRemoved",
      "type": "event"
    },
    {
      "anonymous": false,
      "inputs": [
        {
          "indexed": true,
          "internalType": "address",
          "name": "previousOwner",
          "type": "address"
        },
        {
          "indexed": true,
          "internalType": "address",
          "name": "newOwner",
          "type": "address"
        }
      ],
      "name": "OwnershipTransferred",
      "type": "event"
    },
    {
      "anonymous": false,
      "inputs": [
        {
          "indexed": true,
          "internalType": "bytes32",
          "name": "role",
          "type": "bytes32"
        },
        {
          "indexed": true,
          "internalType": "bytes32",
          "name": "previousAdminRole",
          "type": "bytes32"
        },
        {
          "indexed": true,
          "internalType": "bytes32",
          "name": "newAdminRole",
          "type": "bytes32"
        }
      ],
      "name": "RoleAdminChanged",
      "type": "event"
    },
    {
      "anonymous": false,
      "inputs": [
        {
          "indexed": true,
          "internalType": "bytes32",
          "name": "role",
          "type": "bytes32"
        },
        {
          "indexed": true,
          "internalType": "address",
          "name": "account",
          "type": "address"
        },
        {
          "indexed": true,
          "internalType": "address",
          "name": "sender",
          "type": "address"
        }
      ],
      "name": "RoleGranted",
      "type": "event"
    },
    {
      "anonymous": false,
      "inputs": [
        {
          "indexed": true,
          "internalType": "bytes32",
          "name": "role",
          "type": "bytes32"
        },
        {
          "indexed": true,
          "internalType": "address",
          "name": "account",
          "type": "address"
        },
        {
          "indexed": true,
          "internalType": "address",
          "name": "sender",
          "type": "address"
        }
      ],
      "name": "RoleRevoked",
      "type": "event"
    },
    {
      "anonymous": false,
      "inputs": [
        {
          "indexed": true,
          "internalType": "uint256",
          "name": "tokenId",
          "type": "uint256"
        },
        {
          "indexed": true,
          "internalType": "address",
          "name": "to",
          "type": "address"
        },
        {
          "indexed": false,
          "internalType": "uint256",
          "name": "eventId",
          "type": "uint256"
        }
      ],
      "name": "TicketMinted",
      "type": "event"
    },
    {
      "anonymous": false,
      "inputs": [
        {
          "indexed": true,
          "internalType": "address",
          "name": "from",
          "type": "address"
        },
        {
          "indexed": true,
          "internalType": "address",
          "name": "to",
          "type": "address"
        },
        {
          "indexed": true,
          "internalType": "uint256",
          "name": "tokenId",
          "type": "uint256"
        }
      ],
      "name": "Transfer",
      "type": "event"
    },
    {
      "inputs": [],
      "name": "ATTENDANCE_ROLE",
      "outputs": [
        {
          "internalType": "bytes32",
          "name": "",
          "type": "bytes32"
        }
      ],
      "stateMutability": "view",
      "type": "function"
    },
    {
      "inputs": [],
      "name": "DEFAULT_ADMIN_ROLE",
      "outputs": [
        {
          "internalType": "bytes32",
          "name": "",
          "type": "bytes32"
        }
      ],
      "stateMutability": "view",
      "type": "function"
    },
    {
      "inputs": [],
      "name": "MINTER_ROLE",
      "outputs": [
        {
          "internalType": "bytes32",
          "name": "",
          "type": "bytes32"
        }
      ],
      "stateMutability": "view",
      "type": "function"
    },
    {
      "inputs": [
        {
          "internalType": "uint256",
          "name": "eventId",
          "type": "uint256"
        }
      ],
      "name": "addEvent",
      "outputs": [],
      "stateMutability": "nonpayable",
      "type": "function"
    },
    {
      "inputs": [
        {
          "internalType": "address",
          "name": "to",
          "type": "address"
        },
        {
          "internalType": "uint256",
          "name": "tokenId",
          "type": "uint256"
        }
      ],
      "name": "approve",
      "outputs": [],
      "stateMutability": "nonpayable",
      "type": "function"
    },
    {
      "inputs": [
        {
          "internalType": "address",
          "name": "owner",
          "type": "address"
        }
      ],
      "name": "balanceOf",
      "outputs": [
        {
          "internalType": "uint256",
          "name": "",
          "type": "uint256"
        }
      ],
      "stateMutability": "view",
      "type": "function"
    },
    {
      "inputs": [
        {
          "internalType": "uint256",
          "name": "tokenId",
          "type": "uint256"
        }
      ],
      "name": "getApproved",
      "outputs": [
        {
          "internalType": "address",
          "name": "",
          "type": "address"
        }
      ],
      "stateMutability": "view",
      "type": "function"
    },
    {
      "inputs": [
        {
          "internalType": "uint256",
          "name": "tokenId",
          "type": "uint256"
        }
      ],
      "name": "getCertificateHash",
      "outputs": [
        {
          "internalType": "bytes32",
          "name": "",
          "type": "bytes32"
        }
      ],
      "stateMutability": "view",
      "type": "function"
    },
    {
      "inputs": [
        {
          "internalType": "bytes32",
          "name": "role",
          "type": "bytes32"
        }
      ],
      "name": "getRoleAdmin",
      "outputs": [
        {
          "internalType": "bytes32",
          "name": "",
          "type": "bytes32"
        }
      ],
      "stateMutability": "view",
      "type": "function"
    },
    {
      "inputs": [
        {
          "internalType": "uint256",
          "name": "tokenId",
          "type": "uint256"
        }
      ],
      "name": "getTicketData",
      "outputs": [
        {
          "internalType": "uint256",
          "name": "eventId",
          "type": "uint256"
        },
        {
          "internalType": "bool",
          "name": "attendanceMarked",
          "type": "bool"
        },
        {
          "internalType": "bytes32",
          "name": "certificateHash",
          "type": "bytes32"
        },
        {
          "internalType": "uint256",
          "name": "mintedAt",
          "type": "uint256"
        }
      ],
      "stateMutability": "view",
      "type": "function"
    },
    {
      "inputs": [
        {
          "internalType": "bytes32",
          "name": "role",
          "type": "bytes32"
        },
        {
          "internalType": "address",
          "name": "account",
          "type": "address"
        }
      ],
      "name": "grantRole",
      "outputs": [],
      "stateMutability": "nonpayable",
      "type": "function"
    },
    {
      "inputs": [
        {
          "internalType": "bytes32",
          "name": "role",
          "type": "bytes32"
        },
        {
          "internalType": "address",
          "name": "account",
          "type": "address"
        }
      ],
      "name": "hasRole",
      "outputs": [
        {
          "internalType": "bool",
          "name": "",
          "type": "bool"
        }
      ],
      "stateMutability": "view",
      "type": "function"
    },
    {
      "inputs": [
        {
          "internalType": "address",
          "name": "owner",
          "type": "address"
        },
        {
          "internalType": "address",
          "name": "operator",
          "type": "address"
        }
      ],
      "name": "isApprovedForAll",
      "outputs": [
        {
          "internalType": "bool",
          "name": "",
          "type": "bool"
        }
      ],
      "stateMutability": "view",
      "type": "function"
    },
    {
      "inputs": [
        {
          "internalType": "uint256",
          "name": "eventId",
          "type": "uint256"
        }
      ],
      "name": "isEventValid",
      "outputs": [
        {
          "internalType": "bool",
          "name": "",
          "type": "bool"
        }
      ],
      "stateMutability": "view",
      "type": "function"
    },
    {
      "inputs": [
        {
          "internalType": "uint256",
          "name": "tokenId",
          "type": "uint256"
        },
        {
          "internalType": "bytes32",
          "name": "certHash",
          "type": "bytes32"
        }
      ],
      "name": "issueCertificateHash",
      "outputs": [],
      "stateMutability": "nonpayable",
      "type": "function"
    },
    {
      "inputs": [
        {
          "internalType": "uint256",
          "name": "tokenId",
          "type": "uint256"
        }
      ],
      "name": "markAttendance",
      "outputs": [],
      "stateMutability": "nonpayable",
      "type": "function"
    },
    {
      "inputs": [
        {
          "internalType": "address",
          "name": "to",
          "type": "address"
        },
        {
          "internalType": "uint256",
          "name": "eventId",
          "type": "uint256"
        },
        {
          "internalType": "string",
          "name": "metadataUri",
          "type": "string"
        }
      ],
      "name": "mintTicket",
      "outputs": [
        {
          "internalType": "uint256",
          "name": "",
          "type": "uint256"
        }
      ],
      "stateMutability": "nonpayable",
      "type": "function"
    },
    {
      "inputs": [],
      "name": "name",
      "outputs": [
        {
          "internalType": "string",
          "name": "",
          "type": "string"
        }
      ],
      "stateMutability": "view",
      "type": "function"
    },
    {
      "inputs": [],
      "name": "owner",
      "outputs": [
        {
          "internalType": "address",
          "name": "",
          "type": "address"
        }
      ],
      "stateMutability": "view",
      "type": "function"
    },
    {
      "inputs": [
        {
          "internalType": "uint256",
          "name": "tokenId",
          "type": "uint256"
        }
      ],
      "name": "ownerOf",
      "outputs": [
        {
          "internalType": "address",
          "name": "",
          "type": "address"
        }
      ],
      "stateMutability": "view",
      "type": "function"
    },
    {
      "inputs": [
        {
          "internalType": "uint256",
          "name": "eventId",
          "type": "uint256"
        }
      ],
      "name": "removeEvent",
      "outputs": [],
      "stateMutability": "nonpayable",
      "type": "function"
    },
    {
      "inputs": [],
      "name": "renounceOwnership",
      "outputs": [],
      "stateMutability": "nonpayable",
      "type": "function"
    },
    {
      "inputs": [
        {
          "internalType": "bytes32",
          "name": "role",
          "type": "bytes32"
        },
        {
          "internalType": "address",
          "name": "callerConfirmation",
          "type": "address"
        }
      ],
      "name": "renounceRole",
      "outputs": [],
      "stateMutability": "nonpayable",
      "type": "function"
    },
    {
      "inputs": [
        {
          "internalType": "bytes32",
          "name": "role",
          "type": "bytes32"
        },
        {
          "internalType": "address",
          "name": "account",
          "type": "address"
        }
      ],
      "name": "revokeRole",
      "outputs": [],
      "stateMutability": "nonpayable",
      "type": "function"
    },
    {
      "inputs": [
        {
          "internalType": "address",
          "name": "from",
          "type": "address"
        },
        {
          "internalType": "address",
          "name": "to",
          "type": "address"
        },
        {
          "internalType": "uint256",
          "name": "tokenId",
          "type": "uint256"
        }
      ],
      "name": "safeTransferFrom",
      "outputs": [],
      "stateMutability": "nonpayable",
      "type": "function"
    },
    {
      "inputs": [
        {
          "internalType": "address",
          "name": "from",
          "type": "address"
        },
        {
          "internalType": "address",
          "name": "to",
          "type": "address"
        },
        {
          "internalType": "uint256",
          "name": "tokenId",
          "type": "uint256"
        },
        {
          "internalType": "bytes",
          "name": "data",
          "type": "bytes"
        }
      ],
      "name": "safeTransferFrom",
      "outputs": [],
      "stateMutability": "nonpayable",
      "type": "function"
    },
    {
      "inputs": [
        {
          "internalType": "address",
          "name": "operator",
          "type": "address"
        },
        {
          "internalType": "bool",
          "name": "approved",
          "type": "bool"
        }
      ],
      "name": "setApprovalForAll",
      "outputs": [],
      "stateMutability": "nonpayable",
      "type": "function"
    },
    {
      "inputs": [
        {
          "internalType": "bytes4",
          "name": "interfaceId",
          "type": "bytes4"
        }
      ],
      "name": "supportsInterface",
      "outputs": [
        {
          "internalType": "bool",
          "name": "",
          "type": "bool"
        }
      ],
      "stateMutability": "view",
      "type": "function"
    },
    {
      "inputs": [],
      "name": "symbol",
      "outputs": [
        {
          "internalType": "string",
          "name": "",
          "type": "string"
        }
      ],
      "stateMutability": "view",
      "type": "function"
    },
    {
      "inputs": [
        {
          "internalType": "uint256",
          "name": "tokenId",
          "type": "uint256"
        }
      ],
      "name": "tokenURI",
      "outputs": [
        {
          "internalType": "string",
          "name": "",
          "type": "string"
        }
      ],
      "stateMutability": "view",
      "type": "function"
    },
    {
      "inputs": [],
      "name": "totalSupply",
      "outputs": [
        {
          "internalType": "uint256",
          "name": "",
          "type": "uint256"
        }
      ],
      "stateMutability": "view",
      "type": "function"
    },
    {
      "inputs": [
        {
          "internalType": "address",
          "name": "from",
          "type": "address"
        },
        {
          "internalType": "address",
          "name": "to",
          "type": "address"
        },
        {
          "internalType": "uint256",
          "name": "tokenId",
          "type": "uint256"
        }
      ],
      "name": "transferFrom",
      "outputs": [],
      "stateMutability": "nonpayable",
      "type": "function"
    },
    {
      "inputs": [
        {
          "internalType": "address",
          "name": "newOwner",
          "type": "address"
        }
      ],
      "name": "transferOwnership",
      "outputs": [],
      "stateMutability": "nonpayable",
      "type": "function"
    }
  ],
  "bytecode": "0x60806040523480156200001157600080fd5b50336040518060400160405280600b81526020017f4576656e745469636b65740000000000000000000000000000000000000000008152506040518060400160405280600481526020017f45544b540000000000000000000000000000000000000000000000000000000081525081600090816200009091906200066d565b508060019081620000a291906200066d565b505050600073ffffffffffffffffffffffffffffffffffffffff168173ffffffffffffffffffffffffffffffffffffffff16036200011a5760006040517f1e4fbdf700000000000000000000000000000000000000000000000000000000815260040162000111919062000799565b60405180910390fd5b6200012b81620001b660201b60201c565b506001600881905550620001496000801b336200027c60201b60201c565b506200017c7f9f2df0fed2c77648de5860a4cc508cd0818c85b8b8a1ab4ceeef8d981c8956a6336200027c60201b60201c565b50620001af7f825784a0f416454ae3947802cfa8dc265cc4d00a5236ce7723909ae42ac9ccbb336200027c60201b60201c565b50620007b6565b6000600660009054906101000a900473ffffffffffffffffffffffffffffffffffffffff16905081600660006101000a81548173ffffffffffffffffffffffffffffffffffffffff021916908373ffffffffffffffffffffffffffffffffffffffff1602179055508173ffffffffffffffffffffffffffffffffffffffff168173ffffffffffffffffffffffffffffffffffffffff167f8be0079c531659141344cd1fd0a4f28419497f9722a3daafe3b4186f6b6457e060405160405180910390a35050565b60006200029083836200038060201b60201c565b620003755760016007600085815260200190815260200160002060000160008473ffffffffffffffffffffffffffffffffffffffff1673ffffffffffffffffffffffffffffffffffffffff16815260200190815260200160002060006101000a81548160ff02191690831515021790555062000311620003eb60201b60201c565b73ffffffffffffffffffffffffffffffffffffffff168273ffffffffffffffffffffffffffffffffffffffff16847f2f8788117e7eff1d82e926ec794901d17c78024a50270940304540a733656f0d60405160405180910390a4600190506200037a565b600090505b92915050565b60006007600084815260200190815260200160002060000160008373ffffffffffffffffffffffffffffffffffffffff1673ffffffffffffffffffffffffffffffffffffffff16815260200190815260200160002060009054906101000a900460ff16905092915050565b600033905090565b600081519050919050565b7f4e487b7100000000000000000000000000000000000000000000000000000000600052604160045260246000fd5b7f4e487b7100000000000000000000000000000000000000000000000000000000600052602260045260246000fd5b600060028204905060018216806200047557607f821691505b6020821081036200048b576200048a6200042d565b5b50919050565b60008190508160005260206000209050919050565b60006020601f8301049050919050565b600082821b905092915050565b600060088302620004f57fffffffffffffffffffffffffffffffffffffffffffffffffffffffffffffffff82620004b6565b620005018683620004b6565b95508019841693508086168417925050509392505050565b6000819050919050565b6000819050919050565b60006200054e62000548620005428462000519565b62000523565b62000519565b9050919050565b6000819050919050565b6200056a836200052d565b62000582620005798262000555565b848454620004c3565b825550505050565b600090565b620005996200058a565b620005a68184846200055f565b505050565b5b81811015620005ce57620005c26000826200058f565b600181019050620005ac565b5050565b601f8211156200061d57620005e78162000491565b620005f284620004a6565b8101602085101562000602578190505b6200061a6200061185620004a6565b830182620005ab565b50505b505050565b600082821c905092915050565b6000620006426000198460080262000622565b1980831691505092915050565b60006200065d83836200062f565b9150826002028217905092915050565b6200067882620003f3565b67ffffffffffffffff811115620006945762000693620003fe565b5b620006a082546200045c565b620006ad828285620005d2565b600060209050601f831160018114620006e55760008415620006d0578287015190505b620006dc85826200064f565b8655506200074c565b601f198416620006f58662000491565b60005b828110156200071f57848901518255600182019150602085019450602081019050620006f8565b868310156200073f57848901516200073b601f8916826200062f565b8355505b6001600288020188555050505b505050505050565b600073ffffffffffffffffffffffffffffffffffffffff82169050919050565b6000620007818262000754565b9050919050565b620007938162000774565b82525050565b6000602082019050620007b0600083018462000788565b92915050565b61364d80620007c66000396000f3fe608060405234801561001057600080fd5b50600436106101fb5760003560e01c8063715018a61161011a578063ade4f8a2116100ad578063d53913931161007c578063d5391393146105d2578063d547741f146105f0578063d9895e6a1461060c578063e985e9c51461063f578063f2fde38b1461066f576101fb565b8063ade4f8a21461053a578063b88d4fde14610556578063c87b56dd14610572578063d2f6a5b1146105a2576101fb565b806395d89b41116100e957806395d89b41146104c65780639fc385ec146104e4578063a217fddf14610500578063a22cb4651461051e576101fb565b8063715018a614610452578063867b55bb1461045c5780638da5cb5b1461047857806391d1485414610496576101fb565b80632f2ff15d116101925780634fd0e0ae116101615780634fd0e0ae146103a657806356164e1e146103d65780636352211e146103f257806370a0823114610422576101fb565b80632f2ff15d1461033457806336568abe1461035057806339552aea1461036c57806342842e0e1461038a576101fb565b8063095ea7b3116101ce578063095ea7b3146102ae57806318160ddd146102ca57806323b872dd146102e8578063248a9ca314610304576101fb565b806301ffc9a71461020057806303543fea1461023057806306fdde0314610260578063081812fc1461027e575b600080fd5b61021a600480360381019061021591906128dd565b61068b565b6040516102279190612925565b60405180910390f35b61024a60048036038101906102459190612a39565b61069d565b6040516102579190612abc565b60405180910390f35b6102686108a4565b6040516102759190612b67565b60405180910390f35b61029860048036038101906102939190612b89565b610936565b6040516102a59190612bc5565b60405180910390f35b6102c860048036038101906102c39190612be0565b610952565b005b6102d2610968565b6040516102df9190612abc565b60405180910390f35b61030260048036038101906102fd9190612c20565b610972565b005b61031e60048036038101906103199190612ca9565b610a74565b60405161032b9190612ce5565b60405180910390f35b61034e60048036038101906103499190612d00565b610a94565b005b61036a60048036038101906103659190612d00565b610ab6565b005b610374610b31565b6040516103819190612ce5565b60405180910390f35b6103a4600480360381019061039f9190612c20565b610b55565b005b6103c060048036038101906103bb9190612b89565b610b75565b6040516103cd9190612ce5565b60405180910390f35b6103f060048036038101906103eb9190612b89565b610c0b565b005b61040c60048036038101906104079190612b89565b610cd5565b6040516104199190612bc5565b60405180910390f35b61043c60048036038101906104379190612d40565b610ce7565b6040516104499190612abc565b60405180910390f35b61045a610da1565b005b61047660048036038101906104719190612d6d565b610db5565b005b610480610f19565b60405161048d9190612bc5565b60405180910390f35b6104b060048036038101906104ab9190612d00565b610f43565b6040516104bd9190612925565b60405180910390f35b6104ce610fae565b6040516104db9190612b67565b60405180910390f35b6104fe60048036038101906104f99190612b89565b611040565b005b61050861110b565b6040516105159190612ce5565b60405180910390f35b61053860048036038101906105339190612dd9565b611112565b005b610554600480360381019061054f9190612b89565b611128565b005b610570600480360381019061056b9190612f49565b61129d565b005b61058c60048036038101906105879190612b89565b6112c2565b6040516105999190612b67565b60405180910390f35b6105bc60048036038101906105b79190612b89565b61132b565b6040516105c99190612925565b60405180910390f35b6105da611355565b6040516105e79190612ce5565b60405180910390f35b61060a60048036038101906106059190612d00565b611379565b005b61062660048036038101906106219190612b89565b61139b565b6040516106369493929190612fcc565b60405180910390f35b61065960048036038101906106549190613011565b611497565b6040516106669190612925565b60405180910390f35b61068960048036038101906106849190612d40565b61152b565b005b6000610696826115b1565b9050919050565b60007f9f2df0fed2c77648de5860a4cc508cd0818c85b8b8a1ab4ceeef8d981c8956a66106c98161162b565b6106d161163f565b600b600086815260200190815260200160002060009054906101000a900460ff16610731576040517f08c379a00000000000000000000000000000000000000000000000000000000081526004016107289061309d565b60405180910390fd5b600073ffffffffffffffffffffffffffffffffffffffff168673ffffffffffffffffffffffffffffffffffffffff16036107a0576040517f08c379a000000000000000000000000000000000000000000000000000000000815260040161079790613109565b60405180910390fd5b6000600960008154809291906107b590613158565b9190505590506107c58782611685565b60405180608001604052808781526020016000151581526020016000801b815260200142815250600a60008381526020019081526020016000206000820151816000015560208201518160010160006101000a81548160ff02191690831515021790555060408201518160020155606082015181600301559050508673ffffffffffffffffffffffffffffffffffffffff16817f5c1c9352d51031acc9a558d7cdcca15b0ce5fe4f46d7315cca355248175b0a37886040516108879190612abc565b60405180910390a38092505061089b6116a3565b50949350505050565b6060600080546108b3906131cf565b80601f01602080910402602001604051908101604052809291908181526020018280546108df906131cf565b801561092c5780601f106109015761010080835404028352916020019161092c565b820191906000526020600020905b81548152906001019060200180831161090f57829003601f168201915b5050505050905090565b6000610941826116ad565b5061094b82611735565b9050919050565b610964828261095f611772565b61177a565b5050565b6000600954905090565b600073ffffffffffffffffffffffffffffffffffffffff168273ffffffffffffffffffffffffffffffffffffffff16036109e45760006040517f64a0ae920000000000000000000000000000000000000000000000000000000081526004016109db9190612bc5565b60405180910390fd5b60006109f883836109f3611772565b61178c565b90508373ffffffffffffffffffffffffffffffffffffffff168173ffffffffffffffffffffffffffffffffffffffff1614610a6e578382826040517f64283d7b000000000000000000000000000000000000000000000000000000008152600401610a6593929190613200565b60405180910390fd5b50505050565b600060076000838152602001908152602001600020600101549050919050565b610a9d82610a74565b610aa68161162b565b610ab083836119a6565b50505050565b610abe611772565b73ffffffffffffffffffffffffffffffffffffffff168173ffffffffffffffffffffffffffffffffffffffff1614610b22576040517f6697b23200000000000000000000000000000000000000000000000000000000815260040160405180910390fd5b610b2c8282611a98565b505050565b7f825784a0f416454ae3947802cfa8dc265cc4d00a5236ce7723909ae42ac9ccbb81565b610b708383836040518060200160405280600081525061129d565b505050565b60008073ffffffffffffffffffffffffffffffffffffffff16610b9783611b8b565b73ffffffffffffffffffffffffffffffffffffffff1603610bed576040517f08c379a0000000000000000000000000000000000000000000000000000000008152600401610be490613283565b60405180910390fd5b600a6000838152602001908152602001600020600201549050919050565b6000801b610c188161162b565b600b600083815260200190815260200160002060009054906101000a900460ff16610c78576040517f08c379a0000000000000000000000000000000000000000000000000000000008152600401610c6f906132ef565b60405180910390fd5b6000600b600084815260200190815260200160002060006101000a81548160ff021916908315150217905550817f6e7fca178a234e4fc64e21ad37436e010bf09bd34f8ae72ad858d8812ca17b3660405160405180910390a25050565b6000610ce0826116ad565b9050919050565b60008073ffffffffffffffffffffffffffffffffffffffff168273ffffffffffffffffffffffffffffffffffffffff1603610d5a5760006040517f89c62b64000000000000000000000000000000000000000000000000000000008152600401610d519190612bc5565b60405180910390fd5b600360008373ffffffffffffffffffffffffffffffffffffffff1673ffffffffffffffffffffffffffffffffffffffff168152602001908152602001600020549050919050565b610da9611bc8565b610db36000611c4f565b565b7f825784a0f416454ae3947802cfa8dc265cc4d00a5236ce7723909ae42ac9ccbb610ddf8161162b565b610de761163f565b600073ffffffffffffffffffffffffffffffffffffffff16610e0884611b8b565b73ffffffffffffffffffffffffffffffffffffffff1603610e5e576040517f08c379a0000000000000000000000000000000000000000000000000000000008152600401610e5590613283565b60405180910390fd5b6000801b600a60008581526020019081526020016000206002015414610eb9576040517f08c379a0000000000000000000000000000000000000000000000000000000008152600401610eb09061335b565b60405180910390fd5b81600a600085815260200190815260200160002060020181905550827fc771a3f3d4fd030711f3d1cdaa1998be2f0b7725cf9abfc87f05519cc09c9e0d83604051610f049190612ce5565b60405180910390a2610f146116a3565b505050565b6000600660009054906101000a900473ffffffffffffffffffffffffffffffffffffffff16905090565b60006007600084815260200190815260200160002060000160008373ffffffffffffffffffffffffffffffffffffffff1673ffffffffffffffffffffffffffffffffffffffff16815260200190815260200160002060009054906101000a900460ff16905092915050565b606060018054610fbd906131cf565b80601f0160208091040260200160405190810160405280929190818152602001828054610fe9906131cf565b80156110365780601f1061100b57610100808354040283529160200191611036565b820191906000526020600020905b81548152906001019060200180831161101957829003601f168201915b5050505050905090565b6000801b61104d8161162b565b600b600083815260200190815260200160002060009054906101000a900460ff16156110ae576040517f08c379a00000000000000000000000000000000000000000000000000000000081526004016110a5906133c7565b60405180910390fd5b6001600b600084815260200190815260200160002060006101000a81548160ff021916908315150217905550817f9654a8734a1953da9984c9bbeb58f6188aeb4aed0e513bb9e3e6b166c9a9d97c60405160405180910390a25050565b6000801b81565b61112461111d611772565b8383611d15565b5050565b7f825784a0f416454ae3947802cfa8dc265cc4d00a5236ce7723909ae42ac9ccbb6111528161162b565b61115a61163f565b600073ffffffffffffffffffffffffffffffffffffffff1661117b83611b8b565b73ffffffffffffffffffffffffffffffffffffffff16036111d1576040517f08c379a00000000000000000000000000000000000000000000000000000000081526004016111c890613283565b60405180910390fd5b600a600083815260200190815260200160002060010160009054906101000a900460ff1615611235576040517f08c379a000000000000000000000000000000000000000000000000000000000815260040161122c90613433565b60405180910390fd5b6001600a600084815260200190815260200160002060010160006101000a81548160ff021916908315150217905550817f102aa88b2e25801f2245bbe07c3fe3d56b339e65673d1c5d047b7dc5fee2197860405160405180910390a26112996116a3565b5050565b6112a8848484610972565b6112bc6112b3611772565b85858585611e84565b50505050565b60606112cd826116ad565b5060006112d8612035565b905060008151116112f85760405180602001604052806000815250611323565b806113028461204c565b60405160200161131392919061348f565b6040516020818303038152906040525b915050919050565b6000600b600083815260200190815260200160002060009054906101000a900460ff169050919050565b7f9f2df0fed2c77648de5860a4cc508cd0818c85b8b8a1ab4ceeef8d981c8956a681565b61138282610a74565b61138b8161162b565b6113958383611a98565b50505050565b600080600080600073ffffffffffffffffffffffffffffffffffffffff166113c286611b8b565b73ffffffffffffffffffffffffffffffffffffffff1603611418576040517f08c379a000000000000000000000000000000000000000000000000000000000815260040161140f90613283565b60405180910390fd5b6000600a6000878152602001908152602001600020604051806080016040529081600082015481526020016001820160009054906101000a900460ff1615151515815260200160028201548152602001600382015481525050905080600001518160200151826040015183606001519450945094509450509193509193565b6000600560008473ffffffffffffffffffffffffffffffffffffffff1673ffffffffffffffffffffffffffffffffffffffff16815260200190815260200160002060008373ffffffffffffffffffffffffffffffffffffffff1673ffffffffffffffffffffffffffffffffffffffff16815260200190815260200160002060009054906101000a900460ff16905092915050565b611533611bc8565b600073ffffffffffffffffffffffffffffffffffffffff168173ffffffffffffffffffffffffffffffffffffffff16036115a55760006040517f1e4fbdf700000000000000000000000000000000000000000000000000000000815260040161159c9190612bc5565b60405180910390fd5b6115ae81611c4f565b50565b60007f7965db0b000000000000000000000000000000000000000000000000000000007bffffffffffffffffffffffffffffffffffffffffffffffffffffffff1916827bffffffffffffffffffffffffffffffffffffffffffffffffffffffff1916148061162457506116238261211a565b5b9050919050565b61163c81611637611772565b6121fc565b50565b60026008540361167b576040517f3ee5aeb500000000000000000000000000000000000000000000000000000000815260040160405180910390fd5b6002600881905550565b61169f82826040518060200160405280600081525061224d565b5050565b6001600881905550565b6000806116b983611b8b565b9050600073ffffffffffffffffffffffffffffffffffffffff168173ffffffffffffffffffffffffffffffffffffffff160361172c57826040517f7e2732890000000000000000000000000000000000000000000000000000000081526004016117239190612abc565b60405180910390fd5b80915050919050565b60006004600083815260200190815260200160002060009054906101000a900473ffffffffffffffffffffffffffffffffffffffff169050919050565b600033905090565b6117878383836001612271565b505050565b60008061179884611b8b565b9050600073ffffffffffffffffffffffffffffffffffffffff168373ffffffffffffffffffffffffffffffffffffffff16146117da576117d9818486612436565b5b600073ffffffffffffffffffffffffffffffffffffffff168173ffffffffffffffffffffffffffffffffffffffff161461186b5761181c600085600080612271565b6001600360008373ffffffffffffffffffffffffffffffffffffffff1673ffffffffffffffffffffffffffffffffffffffff168152602001908152602001600020600082825403925050819055505b600073ffffffffffffffffffffffffffffffffffffffff168573ffffffffffffffffffffffffffffffffffffffff16146118ee576001600360008773ffffffffffffffffffffffffffffffffffffffff1673ffffffffffffffffffffffffffffffffffffffff168152602001908152602001600020600082825401925050819055505b846002600086815260200190815260200160002060006101000a81548173ffffffffffffffffffffffffffffffffffffffff021916908373ffffffffffffffffffffffffffffffffffffffff160217905550838573ffffffffffffffffffffffffffffffffffffffff168273ffffffffffffffffffffffffffffffffffffffff167fddf252ad1be2c89b69c2b068fc378daa952ba7f163c4a11628f55a4df523b3ef60405160405180910390a4809150509392505050565b60006119b28383610f43565b611a8d5760016007600085815260200190815260200160002060000160008473ffffffffffffffffffffffffffffffffffffffff1673ffffffffffffffffffffffffffffffffffffffff16815260200190815260200160002060006101000a81548160ff021916908315150217905550611a2a611772565b73ffffffffffffffffffffffffffffffffffffffff168273ffffffffffffffffffffffffffffffffffffffff16847f2f8788117e7eff1d82e926ec794901d17c78024a50270940304540a733656f0d60405160405180910390a460019050611a92565b600090505b92915050565b6000611aa48383610f43565b15611b805760006007600085815260200190815260200160002060000160008473ffffffffffffffffffffffffffffffffffffffff1673ffffffffffffffffffffffffffffffffffffffff16815260200190815260200160002060006101000a81548160ff021916908315150217905550611b1d611772565b73ffffffffffffffffffffffffffffffffffffffff168273ffffffffffffffffffffffffffffffffffffffff16847ff6391f5c32d9c69d2a47ea670b442974b53935d1edc7fd64eb21e047a839171b60405160405180910390a460019050611b85565b600090505b92915050565b60006002600083815260200190815260200160002060009054906101000a900473ffffffffffffffffffffffffffffffffffffffff169050919050565b611bd0611772565b73ffffffffffffffffffffffffffffffffffffffff16611bee610f19565b73ffffffffffffffffffffffffffffffffffffffff1614611c4d57611c11611772565b6040517f118cdaa7000000000000000000000000000000000000000000000000000000008152600401611c449190612bc5565b60405180910390fd5b565b6000600660009054906101000a900473ffffffffffffffffffffffffffffffffffffffff16905081600660006101000a81548173ffffffffffffffffffffffffffffffffffffffff021916908373ffffffffffffffffffffffffffffffffffffffff1602179055508173ffffffffffffffffffffffffffffffffffffffff168173ffffffffffffffffffffffffffffffffffffffff167f8be0079c531659141344cd1fd0a4f28419497f9722a3daafe3b4186f6b6457e060405160405180910390a35050565b600073ffffffffffffffffffffffffffffffffffffffff168273ffffffffffffffffffffffffffffffffffffffff1603611d8657816040517f5b08ba18000000000000000000000000000000000000000000000000000000008152600401611d7d9190612bc5565b60405180910390fd5b80600560008573ffffffffffffffffffffffffffffffffffffffff1673ffffffffffffffffffffffffffffffffffffffff16815260200190815260200160002060008473ffffffffffffffffffffffffffffffffffffffff1673ffffffffffffffffffffffffffffffffffffffff16815260200190815260200160002060006101000a81548160ff0219169083151502179055508173ffffffffffffffffffffffffffffffffffffffff168373ffffffffffffffffffffffffffffffffffffffff167f17307eab39ab6107e8899845ad3d59bd9653f200f220920489ca2b5937696c3183604051611e779190612925565b60405180910390a3505050565b60008373ffffffffffffffffffffffffffffffffffffffff163b111561202e578273ffffffffffffffffffffffffffffffffffffffff1663150b7a02868685856040518563ffffffff1660e01b8152600401611ee39493929190613508565b6020604051808303816000875af1925050508015611f1f57506040513d601f19601f82011682018060405250810190611f1c9190613569565b60015b611fa3573d8060008114611f4f576040519150601f19603f3d011682016040523d82523d6000602084013e611f54565b606091505b506000815103611f9b57836040517f64a0ae92000000000000000000000000000000000000000000000000000000008152600401611f929190612bc5565b60405180910390fd5b805160208201fd5b63150b7a0260e01b7bffffffffffffffffffffffffffffffffffffffffffffffffffffffff1916817bffffffffffffffffffffffffffffffffffffffffffffffffffffffff19161461202c57836040517f64a0ae920000000000000000000000000000000000000000000000000000000081526004016120239190612bc5565b60405180910390fd5b505b5050505050565b606060405180602001604052806000815250905090565b60606000600161205b846124fa565b01905060008167ffffffffffffffff81111561207a57612079612e1e565b5b6040519080825280601f01601f1916602001820160405280156120ac5781602001600182028036833780820191505090505b509050600082602083010190505b60011561210f578080600190039150507f3031323334353637383961626364656600000000000000000000000000000000600a86061a8153600a858161210357612102613596565b5b049450600085036120ba575b819350505050919050565b60007f80ac58cd000000000000000000000000000000000000000000000000000000007bffffffffffffffffffffffffffffffffffffffffffffffffffffffff1916827bffffffffffffffffffffffffffffffffffffffffffffffffffffffff191614806121e557507f5b5e139f000000000000000000000000000000000000000000000000000000007bffffffffffffffffffffffffffffffffffffffffffffffffffffffff1916827bffffffffffffffffffffffffffffffffffffffffffffffffffffffff1916145b806121f557506121f48261264d565b5b9050919050565b6122068282610f43565b6122495780826040517fe2517d3f0000000000000000000000000000000000000000000000000000000081526004016122409291906135c5565b60405180910390fd5b5050565b61225783836126b7565b61226c612262611772565b6000858585611e84565b505050565b80806122aa5750600073ffffffffffffffffffffffffffffffffffffffff168273ffffffffffffffffffffffffffffffffffffffff1614155b156123de5760006122ba846116ad565b9050600073ffffffffffffffffffffffffffffffffffffffff168373ffffffffffffffffffffffffffffffffffffffff161415801561232557508273ffffffffffffffffffffffffffffffffffffffff168173ffffffffffffffffffffffffffffffffffffffff1614155b801561233857506123368184611497565b155b1561237a57826040517fa9fbf51f0000000000000000000000000000000000000000000000000000000081526004016123719190612bc5565b60405180910390fd5b81156123dc57838573ffffffffffffffffffffffffffffffffffffffff168273ffffffffffffffffffffffffffffffffffffffff167f8c5be1e5ebec7d5bd14f71427d1e84f3dd0314c0f7b2291e5b200ac8c7c3b92560405160405180910390a45b505b836004600085815260200190815260200160002060006101000a81548173ffffffffffffffffffffffffffffffffffffffff021916908373ffffffffffffffffffffffffffffffffffffffff16021790555050505050565b6124418383836127b0565b6124f557600073ffffffffffffffffffffffffffffffffffffffff168373ffffffffffffffffffffffffffffffffffffffff16036124b657806040517f7e2732890000000000000000000000000000000000000000000000000000000081526004016124ad9190612abc565b60405180910390fd5b81816040517f177e802f0000000000000000000000000000000000000000000000000000000081526004016124ec9291906135ee565b60405180910390fd5b505050565b600080600090507a184f03e93ff9f4daa797ed6e38ed64bf6a1f0100000000000000008310612558577a184f03e93ff9f4daa797ed6e38ed64bf6a1f010000000000000000838161254e5761254d613596565b5b0492506040810190505b6d04ee2d6d415b85acef81000000008310612595576d04ee2d6d415b85acef8100000000838161258b5761258a613596565b5b0492506020810190505b662386f26fc1000083106125c457662386f26fc1000083816125ba576125b9613596565b5b0492506010810190505b6305f5e10083106125ed576305f5e10083816125e3576125e2613596565b5b0492506008810190505b612710831061261257612710838161260857612607613596565b5b0492506004810190505b60648310612635576064838161262b5761262a613596565b5b0492506002810190505b600a8310612644576001810190505b80915050919050565b60007f01ffc9a7000000000000000000000000000000000000000000000000000000007bffffffffffffffffffffffffffffffffffffffffffffffffffffffff1916827bffffffffffffffffffffffffffffffffffffffffffffffffffffffff1916149050919050565b600073ffffffffffffffffffffffffffffffffffffffff168273ffffffffffffffffffffffffffffffffffffffff16036127295760006040517f64a0ae920000000000000000000000000000000000000000000000000000000081526004016127209190612bc5565b60405180910390fd5b60006127378383600061178c565b9050600073ffffffffffffffffffffffffffffffffffffffff168173ffffffffffffffffffffffffffffffffffffffff16146127ab5760006040517f73c6ac6e0000000000000000000000000000000000000000000000000000000081526004016127a29190612bc5565b60405180910390fd5b505050565b60008073ffffffffffffffffffffffffffffffffffffffff168373ffffffffffffffffffffffffffffffffffffffff161415801561286857508273ffffffffffffffffffffffffffffffffffffffff168473ffffffffffffffffffffffffffffffffffffffff16148061282957506128288484611497565b5b8061286757508273ffffffffffffffffffffffffffffffffffffffff1661284f83611735565b73ffffffffffffffffffffffffffffffffffffffff16145b5b90509392505050565b6000604051905090565b600080fd5b600080fd5b60007fffffffff0000000000000000000000000000000000000000000000000000000082169050919050565b6128ba81612885565b81146128c557600080fd5b50565b6000813590506128d7816128b1565b92915050565b6000602082840312156128f3576128f261287b565b5b6000612901848285016128c8565b91505092915050565b60008115159050919050565b61291f8161290a565b82525050565b600060208201905061293a6000830184612916565b92915050565b600073ffffffffffffffffffffffffffffffffffffffff82169050919050565b600061296b82612940565b9050919050565b61297b81612960565b811461298657600080fd5b50565b60008135905061299881612972565b92915050565b6000819050919050565b6129b18161299e565b81146129bc57600080fd5b50565b6000813590506129ce816129a8565b92915050565b600080fd5b600080fd5b600080fd5b60008083601f8401126129f9576129f86129d4565b5b8235905067ffffffffffffffff811115612a1657612a156129d9565b5b602083019150836001820283011115612a3257612a316129de565b5b9250929050565b60008060008060608587031215612a5357612a5261287b565b5b6000612a6187828801612989565b9450506020612a72878288016129bf565b935050604085013567ffffffffffffffff811115612a9357612a92612880565b5b612a9f878288016129e3565b925092505092959194509250565b612ab68161299e565b82525050565b6000602082019050612ad16000830184612aad565b92915050565b600081519050919050565b600082825260208201905092915050565b60005b83811015612b11578082015181840152602081019050612af6565b60008484015250505050565b6000601f19601f8301169050919050565b6000612b3982612ad7565b612b438185612ae2565b9350612b53818560208601612af3565b612b5c81612b1d565b840191505092915050565b60006020820190508181036000830152612b818184612b2e565b905092915050565b600060208284031215612b9f57612b9e61287b565b5b6000612bad848285016129bf565b91505092915050565b612bbf81612960565b82525050565b6000602082019050612bda6000830184612bb6565b92915050565b60008060408385031215612bf757612bf661287b565b5b6000612c0585828601612989565b9250506020612c16858286016129bf565b9150509250929050565b600080600060608486031215612c3957612c3861287b565b5b6000612c4786828701612989565b9350506020612c5886828701612989565b9250506040612c69868287016129bf565b9150509250925092565b6000819050919050565b612c8681612c73565b8114612c9157600080fd5b50565b600081359050612ca381612c7d565b92915050565b600060208284031215612cbf57612cbe61287b565b5b6000612ccd84828501612c94565b91505092915050565b612cdf81612c73565b82525050565b6000602082019050612cfa6000830184612cd6565b92915050565b60008060408385031215612d1757612d1661287b565b5b6000612d2585828601612c94565b9250506020612d3685828601612989565b9150509250929050565b600060208284031215612d5657612d5561287b565b5b6000612d6484828501612989565b91505092915050565b60008060408385031215612d8457612d8361287b565b5b6000612d92858286016129bf565b9250506020612da385828601612c94565b9150509250929050565b612db68161290a565b8114612dc157600080fd5b50565b600081359050612dd381612dad565b92915050565b60008060408385031215612df057612def61287b565b5b6000612dfe85828601612989565b9250506020612e0f85828601612dc4565b9150509250929050565b600080fd5b7f4e487b7100000000000000000000000000000000000000000000000000000000600052604160045260246000fd5b612e5682612b1d565b810181811067ffffffffffffffff82111715612e7557612e74612e1e565b5b80604052505050565b6000612e88612871565b9050612e948282612e4d565b919050565b600067ffffffffffffffff821115612eb457612eb3612e1e565b5b612ebd82612b1d565b9050602081019050919050565b82818337600083830152505050565b6000612eec612ee784612e99565b612e7e565b905082815260208101848484011115612f0857612f07612e19565b5b612f13848285612eca565b509392505050565b600082601f830112612f3057612f2f6129d4565b5b8135612f40848260208601612ed9565b91505092915050565b60008060008060808587031215612f6357612f6261287b565b5b6000612f7187828801612989565b9450506020612f8287828801612989565b9350506040612f93878288016129bf565b925050606085013567ffffffffffffffff811115612fb457612fb3612880565b5b612fc087828801612f1b565b91505092959194509250565b6000608082019050612fe16000830187612aad565b612fee6020830186612916565b612ffb6040830185612cd6565b6130086060830184612aad565b95945050505050565b600080604083850312156130285761302761287b565b5b600061303685828601612989565b925050602061304785828601612989565b9150509250929050565b7f496e76616c6964206576656e7400000000000000000000000000000000000000600082015250565b6000613087600d83612ae2565b915061309282613051565b602082019050919050565b600060208201905081810360008301526130b68161307a565b9050919050565b7f496e76616c696420726563697069656e74000000000000000000000000000000600082015250565b60006130f3601183612ae2565b91506130fe826130bd565b602082019050919050565b60006020820190508181036000830152613122816130e6565b9050919050565b7f4e487b7100000000000000000000000000000000000000000000000000000000600052601160045260246000fd5b60006131638261299e565b91507fffffffffffffffffffffffffffffffffffffffffffffffffffffffffffffffff820361319557613194613129565b5b600182019050919050565b7f4e487b7100000000000000000000000000000000000000000000000000000000600052602260045260246000fd5b600060028204905060018216806131e757607f821691505b6020821081036131fa576131f96131a0565b5b50919050565b60006060820190506132156000830186612bb6565b6132226020830185612aad565b61322f6040830184612bb6565b949350505050565b7f546f6b656e20646f6573206e6f74206578697374000000000000000000000000600082015250565b600061326d601483612ae2565b915061327882613237565b602082019050919050565b6000602082019050818103600083015261329c81613260565b9050919050565b7f4576656e7420646f6573206e6f74206578697374000000000000000000000000600082015250565b60006132d9601483612ae2565b91506132e4826132a3565b602082019050919050565b60006020820190508181036000830152613308816132cc565b9050919050565b7f436572746966696361746520616c726561647920697373756564000000000000600082015250565b6000613345601a83612ae2565b91506133508261330f565b602082019050919050565b6000602082019050818103600083015261337481613338565b9050919050565b7f4576656e7420616c726561647920657869737473000000000000000000000000600082015250565b60006133b1601483612ae2565b91506133bc8261337b565b602082019050919050565b600060208201905081810360008301526133e0816133a4565b9050919050565b7f416c7265616479206d61726b6564000000000000000000000000000000000000600082015250565b600061341d600e83612ae2565b9150613428826133e7565b602082019050919050565b6000602082019050818103600083015261344c81613410565b9050919050565b600081905092915050565b600061346982612ad7565b6134738185613453565b9350613483818560208601612af3565b80840191505092915050565b600061349b828561345e565b91506134a7828461345e565b91508190509392505050565b600081519050919050565b600082825260208201905092915050565b60006134da826134b3565b6134e481856134be565b93506134f4818560208601612af3565b6134fd81612b1d565b840191505092915050565b600060808201905061351d6000830187612bb6565b61352a6020830186612bb6565b6135376040830185612aad565b818103606083015261354981846134cf565b905095945050505050565b600081519050613563816128b1565b92915050565b60006020828403121561357f5761357e61287b565b5b600061358d84828501613554565b91505092915050565b7f4e487b7100000000000000000000000000000000000000000000000000000000600052601260045260246000fd5b60006040820190506135da6000830185612bb6565b6135e76020830184612cd6565b9392505050565b60006040820190506136036000830185612bb6565b6136106020830184612aad565b939250505056fea264697066735822122061bc30c3efdc57658bbae12494d00ecd07ba303849917a5e916f34c6e1c7f83164736f6c63430008140033",
  "linkReferences": {},
  "deployedLinkReferences": {}
}